{
  "contractName": "ERC20Vault",
  "abi": [
    {
      "inputs": [
        {
          "internalType": "address",
          "name": "tokenAddress",
          "type": "address"
        },
        {
          "internalType": "string",
          "name": "tokenSymbol",
          "type": "string"
        },
        {
          "internalType": "address",
          "name": "registryAddress",
          "type": "address"
        },
        {
          "internalType": "uint256",
          "name": "_releaseTimestampInSeconds",
          "type": "uint256"
        }
      ],
      "stateMutability": "nonpayable",
      "type": "constructor"
    },
    {
      "inputs": [],
      "name": "owner",
      "outputs": [
        {
          "internalType": "address payable",
          "name": "",
          "type": "address"
        }
      ],
      "stateMutability": "view",
      "type": "function"
    },
    {
      "inputs": [],
      "name": "release",
      "outputs": [],
      "stateMutability": "nonpayable",
      "type": "function"
    },
    {
      "inputs": [],
      "name": "releaseTimestampInSeconds",
      "outputs": [
        {
          "internalType": "uint256",
          "name": "",
          "type": "uint256"
        }
      ],
      "stateMutability": "view",
      "type": "function"
    }
  ],
  "bytecode": "0x60a06040523480156200001157600080fd5b5060405162000ac538038062000ac58339818101604052810190620000379190620001dc565b818382336000806101000a81548173ffffffffffffffffffffffffffffffffffffffff021916908373ffffffffffffffffffffffffffffffffffffffff1602179055508060018190555060008390508073ffffffffffffffffffffffffffffffffffffffff166332434a2e30856040518363ffffffff1660e01b8152600401620000c3929190620002b3565b600060405180830381600087803b158015620000de57600080fd5b505af1158015620000f3573d6000803e3d6000fd5b50505050505050508373ffffffffffffffffffffffffffffffffffffffff1660808173ffffffffffffffffffffffffffffffffffffffff1660601b815250505050505062000452565b6000620001536200014d846200031b565b620002e7565b9050828152602081018484840111156200016c57600080fd5b62000179848285620003a8565b509392505050565b60008151905062000192816200041e565b92915050565b600082601f830112620001aa57600080fd5b8151620001bc8482602086016200013c565b91505092915050565b600081519050620001d68162000438565b92915050565b60008060008060808587031215620001f357600080fd5b6000620002038782880162000181565b945050602085015167ffffffffffffffff8111156200022157600080fd5b6200022f8782880162000198565b9350506040620002428782880162000181565b92505060606200025587828801620001c5565b91505092959194509250565b6200026c816200036a565b82525050565b60006200027f826200034e565b6200028b818562000359565b93506200029d818560208601620003a8565b620002a8816200040d565b840191505092915050565b6000604082019050620002ca600083018562000261565b8181036020830152620002de818462000272565b90509392505050565b6000604051905081810181811067ffffffffffffffff82111715620003115762000310620003de565b5b8060405250919050565b600067ffffffffffffffff821115620003395762000338620003de565b5b601f19601f8301169050602081019050919050565b600081519050919050565b600082825260208201905092915050565b600062000377826200037e565b9050919050565b600073ffffffffffffffffffffffffffffffffffffffff82169050919050565b6000819050919050565b60005b83811015620003c8578082015181840152602081019050620003ab565b83811115620003d8576000848401525b50505050565b7f4e487b7100000000000000000000000000000000000000000000000000000000600052604160045260246000fd5b6000601f19601f8301169050919050565b62000429816200036a565b81146200043557600080fd5b50565b62000443816200039e565b81146200044f57600080fd5b50565b60805160601c61064d620004786000396000818161019401526101f1015261064d6000f3fe608060405234801561001057600080fd5b50600436106100415760003560e01c806386d1a69f146100465780638da5cb5b14610050578063af6bd3141461006e575b600080fd5b61004e61008c565b005b610058610168565b60405161006591906104a9565b60405180910390f35b61007661018c565b604051610083919061052d565b60405180910390f35b60008054906101000a900473ffffffffffffffffffffffffffffffffffffffff1673ffffffffffffffffffffffffffffffffffffffff163373ffffffffffffffffffffffffffffffffffffffff161461011a576040517f08c379a0000000000000000000000000000000000000000000000000000000008152600401610111906104ed565b60405180910390fd5b426001541061015e576040517f08c379a00000000000000000000000000000000000000000000000000000000081526004016101559061050d565b60405180910390fd5b610166610192565b565b60008054906101000a900473ffffffffffffffffffffffffffffffffffffffff1681565b60015481565b7f000000000000000000000000000000000000000000000000000000000000000073ffffffffffffffffffffffffffffffffffffffff1663a9059cbb60008054906101000a900473ffffffffffffffffffffffffffffffffffffffff167f000000000000000000000000000000000000000000000000000000000000000073ffffffffffffffffffffffffffffffffffffffff166370a08231306040518263ffffffff1660e01b8152600401610248919061048e565b60206040518083038186803b15801561026057600080fd5b505afa158015610274573d6000803e3d6000fd5b505050506040513d601f19601f82011682018060405250810190610298919061035d565b6040518363ffffffff1660e01b81526004016102b59291906104c4565b602060405180830381600087803b1580156102cf57600080fd5b505af11580156102e3573d6000803e3d6000fd5b505050506040513d601f19601f820116820180604052508101906103079190610334565b50565b600081519050610319816105e9565b92915050565b60008151905061032e81610600565b92915050565b60006020828403121561034657600080fd5b60006103548482850161030a565b91505092915050565b60006020828403121561036f57600080fd5b600061037d8482850161031f565b91505092915050565b61038f816105b3565b82525050565b61039e8161056b565b82525050565b6103ad81610559565b82525050565b60006103c0602383610548565b91507f596f7520617265206e6f7420746865206f776e6572206f66207468697320766160008301527f756c7400000000000000000000000000000000000000000000000000000000006020830152604082019050919050565b6000610426602183610548565b91507f5661756c74206973206e6f7420726561647920746f2062652072656c6561736560008301527f64000000000000000000000000000000000000000000000000000000000000006020830152604082019050919050565b610488816105a9565b82525050565b60006020820190506104a360008301846103a4565b92915050565b60006020820190506104be6000830184610395565b92915050565b60006040820190506104d96000830185610386565b6104e6602083018461047f565b9392505050565b60006020820190508181036000830152610506816103b3565b9050919050565b6000602082019050818103600083015261052681610419565b9050919050565b6000602082019050610542600083018461047f565b92915050565b600082825260208201905092915050565b600061056482610589565b9050919050565b600061057682610589565b9050919050565b60008115159050919050565b600073ffffffffffffffffffffffffffffffffffffffff82169050919050565b6000819050919050565b60006105be826105c5565b9050919050565b60006105d0826105d7565b9050919050565b60006105e282610589565b9050919050565b6105f28161057d565b81146105fd57600080fd5b50565b610609816105a9565b811461061457600080fd5b5056fea2646970667358221220ea021b5658d48bdf23bf0b072de14269dd35ade6d8b991a7577635a0f92863f064736f6c63430008000033",
  "immutableReferences": {
    "81": [
      {
        "length": 32,
        "start": 404
      },
      {
        "length": 32,
        "start": 497
      }
    ]
  },
  "source": "// SPDX-License-Identifier: MIT\r\npragma solidity ^0.8.0;\r\n\r\nimport \"./BaseVault.sol\";\r\nimport \"./IERC20.sol\";\r\n\r\ncontract ERC20Vault is BaseVault{\r\n    IERC20 immutable internal token;\r\n \r\n    constructor(address tokenAddress, string memory tokenSymbol, address registryAddress, uint _releaseTimestampInSeconds) BaseVault(registryAddress, tokenSymbol, _releaseTimestampInSeconds) {\r\n        token = IERC20(tokenAddress);\r\n    }\r\n    \r\n    function transfer() override internal {\r\n        token.transfer(owner, token.balanceOf(address(this)));\r\n    }\r\n}",
  "sourcePath": "/home/ndth/hodlers-vault/contracts/ERC20Vault.sol",
  "compiler": {
    "name": "solc",
    "version": "0.8.0+commit.c7dfd78e.Emscripten.clang"
  },
  "schemaVersion": "3.4.1",
  "updatedAt": "2021-07-03T01:57:20.577Z",
  "devdoc": {
    "kind": "dev",
    "methods": {},
    "version": 1
  },
  "userdoc": {
    "kind": "user",
    "methods": {},
    "version": 1
  }
}