{
  "contractName": "Registry",
  "abi": [
    {
      "inputs": [
        {
          "internalType": "address",
          "name": "vaultAddress",
          "type": "address"
        },
        {
          "internalType": "string",
          "name": "tokenSymbol",
          "type": "string"
        }
      ],
      "name": "register",
      "outputs": [],
      "stateMutability": "nonpayable",
      "type": "function"
    },
    {
      "inputs": [],
      "name": "getVaults",
      "outputs": [
        {
          "components": [
            {
              "internalType": "address",
              "name": "vaultAddress",
              "type": "address"
            },
            {
              "internalType": "string",
              "name": "tokenSymbol",
              "type": "string"
            }
          ],
          "internalType": "struct Registry.Vault[]",
          "name": "",
          "type": "tuple[]"
        }
      ],
      "stateMutability": "view",
      "type": "function"
    }
  ],
  "bytecode": "0x608060405234801561001057600080fd5b506107b6806100206000396000f3fe608060405234801561001057600080fd5b50600436106100365760003560e01c806332434a2e1461003b57806344d00f8214610057575b600080fd5b6100556004803603810190610050919061041a565b610075565b005b61005f610177565b60405161006c919061057c565b60405180910390f35b60008060003273ffffffffffffffffffffffffffffffffffffffff1673ffffffffffffffffffffffffffffffffffffffff16815260200190815260200160002090508060405180604001604052808573ffffffffffffffffffffffffffffffffffffffff16815260200184815250908060018154018082558091505060019003906000526020600020906002020160009091909190915060008201518160000160006101000a81548173ffffffffffffffffffffffffffffffffffffffff021916908373ffffffffffffffffffffffffffffffffffffffff160217905550602082015181600101908051906020019061016f9291906102fa565b505050505050565b60606000803373ffffffffffffffffffffffffffffffffffffffff1673ffffffffffffffffffffffffffffffffffffffff168152602001908152602001600020805480602002602001604051908101604052809291908181526020016000905b828210156102f157838290600052602060002090600202016040518060400160405290816000820160009054906101000a900473ffffffffffffffffffffffffffffffffffffffff1673ffffffffffffffffffffffffffffffffffffffff1673ffffffffffffffffffffffffffffffffffffffff168152602001600182018054610260906106c8565b80601f016020809104026020016040519081016040528092919081815260200182805461028c906106c8565b80156102d95780601f106102ae576101008083540402835291602001916102d9565b820191906000526020600020905b8154815290600101906020018083116102bc57829003601f168201915b505050505081525050815260200190600101906101d7565b50505050905090565b828054610306906106c8565b90600052602060002090601f016020900481019282610328576000855561036f565b82601f1061034157805160ff191683800117855561036f565b8280016001018555821561036f579182015b8281111561036e578251825591602001919060010190610353565b5b50905061037c9190610380565b5090565b5b80821115610399576000816000905550600101610381565b5090565b60006103b06103ab846105cf565b61059e565b9050828152602081018484840111156103c857600080fd5b6103d3848285610686565b509392505050565b6000813590506103ea81610769565b92915050565b600082601f83011261040157600080fd5b813561041184826020860161039d565b91505092915050565b6000806040838503121561042d57600080fd5b600061043b858286016103db565b925050602083013567ffffffffffffffff81111561045857600080fd5b610464858286016103f0565b9150509250929050565b600061047a838361053f565b905092915050565b61048b81610654565b82525050565b600061049c8261060f565b6104a68185610632565b9350836020820285016104b8856105ff565b8060005b858110156104f457848403895281516104d5858261046e565b94506104e083610625565b925060208a019950506001810190506104bc565b50829750879550505050505092915050565b60006105118261061a565b61051b8185610643565b935061052b818560208601610695565b61053481610758565b840191505092915050565b60006040830160008301516105576000860182610482565b506020830151848203602086015261056f8282610506565b9150508091505092915050565b600060208201905081810360008301526105968184610491565b905092915050565b6000604051905081810181811067ffffffffffffffff821117156105c5576105c4610729565b5b8060405250919050565b600067ffffffffffffffff8211156105ea576105e9610729565b5b601f19601f8301169050602081019050919050565b6000819050602082019050919050565b600081519050919050565b600081519050919050565b6000602082019050919050565b600082825260208201905092915050565b600082825260208201905092915050565b600061065f82610666565b9050919050565b600073ffffffffffffffffffffffffffffffffffffffff82169050919050565b82818337600083830152505050565b60005b838110156106b3578082015181840152602081019050610698565b838111156106c2576000848401525b50505050565b600060028204905060018216806106e057607f821691505b602082108114156106f4576106f36106fa565b5b50919050565b7f4e487b7100000000000000000000000000000000000000000000000000000000600052602260045260246000fd5b7f4e487b7100000000000000000000000000000000000000000000000000000000600052604160045260246000fd5b6000601f19601f8301169050919050565b61077281610654565b811461077d57600080fd5b5056fea2646970667358221220e2f7dcdad24d6dda7256f146dca658cbe474cba6f896fe3ce4531dd2772acf7264736f6c63430008000033",
  "immutableReferences": {},
  "source": "// SPDX-License-Identifier: MIT\r\npragma solidity ^0.8.0;\r\n\r\nimport \"./BaseVault.sol\";\r\n\r\ncontract Registry {\r\n    struct Vault {\r\n        address vaultAddress;\r\n        string tokenSymbol;\r\n    }\r\n    \r\n    // Keep track of which owner keeps which vaults.\r\n    mapping(address => Vault[]) ownerToVaults;\r\n    \r\n    function register(address vaultAddress, string memory tokenSymbol) public {\r\n        Vault[] storage vaultAddresses = ownerToVaults[tx.origin];\r\n        vaultAddresses.push(Vault(vaultAddress, tokenSymbol));\r\n    }\r\n    \r\n    function getVaults() public view returns (Vault[] memory) {\r\n        return ownerToVaults[msg.sender];\r\n    }\r\n}",
  "sourcePath": "/home/ndth/hodlers-vault/contracts/Registry.sol",
  "compiler": {
    "name": "solc",
    "version": "0.8.0+commit.c7dfd78e.Emscripten.clang"
  },
  "schemaVersion": "3.4.1",
  "updatedAt": "2021-07-03T01:57:20.587Z",
  "devdoc": {
    "kind": "dev",
    "methods": {},
    "version": 1
  },
  "userdoc": {
    "kind": "user",
    "methods": {},
    "version": 1
  }
}