{
  "contractName": "Registry",
  "abi": [
    {
      "inputs": [
        {
          "internalType": "address",
          "name": "vaultAddress",
          "type": "address"
        }
      ],
      "name": "register",
      "outputs": [],
      "stateMutability": "nonpayable",
      "type": "function"
    },
    {
      "inputs": [],
      "name": "getVaults",
      "outputs": [
        {
          "internalType": "address[]",
          "name": "",
          "type": "address[]"
        }
      ],
      "stateMutability": "view",
      "type": "function"
    }
  ],
  "bytecode": "0x608060405234801561001057600080fd5b50610384806100206000396000f3fe608060405234801561001057600080fd5b50600436106100365760003560e01c80634420e4861461003b57806344d00f8214610057575b600080fd5b610055600480360381019061005091906101fc565b610075565b005b61005f61011d565b60405161006c91906102aa565b60405180910390f35b60008060003273ffffffffffffffffffffffffffffffffffffffff1673ffffffffffffffffffffffffffffffffffffffff168152602001908152602001600020905080829080600181540180825580915050600190039060005260206000200160009091909190916101000a81548173ffffffffffffffffffffffffffffffffffffffff021916908373ffffffffffffffffffffffffffffffffffffffff1602179055505050565b60606000803373ffffffffffffffffffffffffffffffffffffffff1673ffffffffffffffffffffffffffffffffffffffff1681526020019081526020016000208054806020026020016040519081016040528092919081815260200182805480156101dd57602002820191906000526020600020905b8160009054906101000a900473ffffffffffffffffffffffffffffffffffffffff1673ffffffffffffffffffffffffffffffffffffffff1681526020019060010190808311610193575b5050505050905090565b6000813590506101f681610337565b92915050565b60006020828403121561020e57600080fd5b600061021c848285016101e7565b91505092915050565b6000610231838361023d565b60208301905092915050565b61024681610305565b82525050565b6000610257826102dc565b61026181856102f4565b935061026c836102cc565b8060005b8381101561029d5781516102848882610225565b975061028f836102e7565b925050600181019050610270565b5085935050505092915050565b600060208201905081810360008301526102c4818461024c565b905092915050565b6000819050602082019050919050565b600081519050919050565b6000602082019050919050565b600082825260208201905092915050565b600061031082610317565b9050919050565b600073ffffffffffffffffffffffffffffffffffffffff82169050919050565b61034081610305565b811461034b57600080fd5b5056fea2646970667358221220c73d30262ac40c6f836e0136751b016e49ee267c86a8aa1dc78933e1c219f5d364736f6c63430008000033",
  "immutableReferences": {},
  "source": "// SPDX-License-Identifier: MIT\r\npragma solidity ^0.8.0;\r\n\r\ncontract Registry {\r\n    // Keep track of which owner keeps which vaults.\r\n    mapping(address => address[]) ownerToVaults;\r\n    \r\n    function register(address vaultAddress) public {\r\n        // Use tx.origin rather than msg.sender because this method can be called from another contract.\r\n        // In such a case, its owner is associated with the signer (original sender) that initated the call chain.\r\n        address[] storage vaultAddresses = ownerToVaults[tx.origin];\r\n        vaultAddresses.push(vaultAddress);\r\n    }\r\n    \r\n    function getVaults() public view returns (address[] memory) {\r\n        return ownerToVaults[msg.sender];\r\n    }\r\n}",
  "sourcePath": "/home/ndth/hodlers-vault/contracts/Registry.sol",
  "compiler": {
    "name": "solc",
    "version": "0.8.0+commit.c7dfd78e.Emscripten.clang"
  },
  "schemaVersion": "3.4.1",
  "updatedAt": "2021-07-02T09:36:33.543Z",
  "devdoc": {
    "kind": "dev",
    "methods": {},
    "version": 1
  },
  "userdoc": {
    "kind": "user",
    "methods": {},
    "version": 1
  }
}