{
  "contractName": "ERC20Vault",
  "abi": [
    {
      "inputs": [
        {
          "internalType": "address",
          "name": "tokenAddress",
          "type": "address"
        },
        {
          "internalType": "uint256",
          "name": "_releaseTimestampInSeconds",
          "type": "uint256"
        }
      ],
      "stateMutability": "nonpayable",
      "type": "constructor"
    },
    {
      "inputs": [],
      "name": "owner",
      "outputs": [
        {
          "internalType": "address payable",
          "name": "",
          "type": "address"
        }
      ],
      "stateMutability": "view",
      "type": "function"
    },
    {
      "inputs": [],
      "name": "release",
      "outputs": [],
      "stateMutability": "nonpayable",
      "type": "function"
    }
  ],
  "bytecode": "0x60a060405234801561001057600080fd5b506040516107b13803806107b1833981810160405281019061003291906100e3565b80336000806101000a81548173ffffffffffffffffffffffffffffffffffffffff021916908373ffffffffffffffffffffffffffffffffffffffff16021790555080600181905550508173ffffffffffffffffffffffffffffffffffffffff1660808173ffffffffffffffffffffffffffffffffffffffff1660601b815250505050610189565b6000815190506100c88161015b565b92915050565b6000815190506100dd81610172565b92915050565b600080604083850312156100f657600080fd5b6000610104858286016100b9565b9250506020610115858286016100ce565b9150509250929050565b600061012a82610131565b9050919050565b600073ffffffffffffffffffffffffffffffffffffffff82169050919050565b6000819050919050565b6101648161011f565b811461016f57600080fd5b50565b61017b81610151565b811461018657600080fd5b50565b60805160601c6106036101ae6000396000818161016501526101c201526106036000f3fe608060405234801561001057600080fd5b50600436106100365760003560e01c806386d1a69f1461003b5780638da5cb5b14610045575b600080fd5b610043610063565b005b61004d61013f565b60405161005a919061047a565b60405180910390f35b60008054906101000a900473ffffffffffffffffffffffffffffffffffffffff1673ffffffffffffffffffffffffffffffffffffffff163373ffffffffffffffffffffffffffffffffffffffff16146100f1576040517f08c379a00000000000000000000000000000000000000000000000000000000081526004016100e8906104be565b60405180910390fd5b4260015410610135576040517f08c379a000000000000000000000000000000000000000000000000000000000815260040161012c906104de565b60405180910390fd5b61013d610163565b565b60008054906101000a900473ffffffffffffffffffffffffffffffffffffffff1681565b7f000000000000000000000000000000000000000000000000000000000000000073ffffffffffffffffffffffffffffffffffffffff1663a9059cbb60008054906101000a900473ffffffffffffffffffffffffffffffffffffffff167f000000000000000000000000000000000000000000000000000000000000000073ffffffffffffffffffffffffffffffffffffffff166370a08231306040518263ffffffff1660e01b8152600401610219919061045f565b60206040518083038186803b15801561023157600080fd5b505afa158015610245573d6000803e3d6000fd5b505050506040513d601f19601f82011682018060405250810190610269919061032e565b6040518363ffffffff1660e01b8152600401610286929190610495565b602060405180830381600087803b1580156102a057600080fd5b505af11580156102b4573d6000803e3d6000fd5b505050506040513d601f19601f820116820180604052508101906102d89190610305565b50565b6000815190506102ea8161059f565b92915050565b6000815190506102ff816105b6565b92915050565b60006020828403121561031757600080fd5b6000610325848285016102db565b91505092915050565b60006020828403121561034057600080fd5b600061034e848285016102f0565b91505092915050565b61036081610569565b82525050565b61036f81610521565b82525050565b61037e8161050f565b82525050565b60006103916023836104fe565b91507f596f7520617265206e6f7420746865206f776e6572206f66207468697320766160008301527f756c7400000000000000000000000000000000000000000000000000000000006020830152604082019050919050565b60006103f76021836104fe565b91507f5661756c74206973206e6f7420726561647920746f2062652072656c6561736560008301527f64000000000000000000000000000000000000000000000000000000000000006020830152604082019050919050565b6104598161055f565b82525050565b60006020820190506104746000830184610375565b92915050565b600060208201905061048f6000830184610366565b92915050565b60006040820190506104aa6000830185610357565b6104b76020830184610450565b9392505050565b600060208201905081810360008301526104d781610384565b9050919050565b600060208201905081810360008301526104f7816103ea565b9050919050565b600082825260208201905092915050565b600061051a8261053f565b9050919050565b600061052c8261053f565b9050919050565b60008115159050919050565b600073ffffffffffffffffffffffffffffffffffffffff82169050919050565b6000819050919050565b60006105748261057b565b9050919050565b60006105868261058d565b9050919050565b60006105988261053f565b9050919050565b6105a881610533565b81146105b357600080fd5b50565b6105bf8161055f565b81146105ca57600080fd5b5056fea26469706673582212206add6cfcc901a366f1645895b9c77a73499c2420c321ad909ae735bbe9fdb34e64736f6c63430008000033",
  "immutableReferences": {
    "59": [
      {
        "length": 32,
        "start": 357
      },
      {
        "length": 32,
        "start": 450
      }
    ]
  },
  "source": "// SPDX-License-Identifier: MIT\r\npragma solidity ^0.8.0;\r\n\r\nimport \"./BaseVault.sol\";\r\nimport \"./IERC20.sol\";\r\n\r\ncontract ERC20Vault is BaseVault{\r\n    IERC20 immutable internal token;\r\n \r\n    constructor(address tokenAddress, uint _releaseTimestampInSeconds) BaseVault(_releaseTimestampInSeconds) {\r\n        token = IERC20(tokenAddress);\r\n    }\r\n    \r\n    function transfer() override internal {\r\n        token.transfer(owner, token.balanceOf(address(this)));\r\n    }\r\n}",
  "sourcePath": "/home/ndth/hodlers-vault/contracts/ERC20Vault.sol",
  "compiler": {
    "name": "solc",
    "version": "0.8.0+commit.c7dfd78e.Emscripten.clang"
  },
  "schemaVersion": "3.4.1",
  "updatedAt": "2021-07-01T04:04:45.362Z",
  "devdoc": {
    "kind": "dev",
    "methods": {},
    "version": 1
  },
  "userdoc": {
    "kind": "user",
    "methods": {},
    "version": 1
  }
}