{
  "contractName": "ERC20Vault",
  "abi": [
    {
      "inputs": [
        {
          "internalType": "address",
          "name": "tokenAddress",
          "type": "address"
        },
        {
          "internalType": "address",
          "name": "registryAddress",
          "type": "address"
        },
        {
          "internalType": "uint256",
          "name": "_releaseTimestampInSeconds",
          "type": "uint256"
        }
      ],
      "stateMutability": "nonpayable",
      "type": "constructor"
    },
    {
      "inputs": [],
      "name": "owner",
      "outputs": [
        {
          "internalType": "address payable",
          "name": "",
          "type": "address"
        }
      ],
      "stateMutability": "view",
      "type": "function"
    },
    {
      "inputs": [],
      "name": "release",
      "outputs": [],
      "stateMutability": "nonpayable",
      "type": "function"
    },
    {
      "inputs": [],
      "name": "releaseTimestampInSeconds",
      "outputs": [
        {
          "internalType": "uint256",
          "name": "",
          "type": "uint256"
        }
      ],
      "stateMutability": "view",
      "type": "function"
    }
  ],
  "bytecode": "0x60a060405234801561001057600080fd5b506040516108ac3803806108ac83398181016040528101906100329190610157565b8181336000806101000a81548173ffffffffffffffffffffffffffffffffffffffff021916908373ffffffffffffffffffffffffffffffffffffffff1602179055508060018190555060008290508073ffffffffffffffffffffffffffffffffffffffff16634420e486306040518263ffffffff1660e01b81526004016100b991906101b5565b600060405180830381600087803b1580156100d357600080fd5b505af11580156100e7573d6000803e3d6000fd5b505050505050508273ffffffffffffffffffffffffffffffffffffffff1660808173ffffffffffffffffffffffffffffffffffffffff1660601b8152505050505061023a565b60008151905061013c8161020c565b92915050565b60008151905061015181610223565b92915050565b60008060006060848603121561016c57600080fd5b600061017a8682870161012d565b935050602061018b8682870161012d565b925050604061019c86828701610142565b9150509250925092565b6101af816101d0565b82525050565b60006020820190506101ca60008301846101a6565b92915050565b60006101db826101e2565b9050919050565b600073ffffffffffffffffffffffffffffffffffffffff82169050919050565b6000819050919050565b610215816101d0565b811461022057600080fd5b50565b61022c81610202565b811461023757600080fd5b50565b60805160601c61064d61025f6000396000818161019401526101f1015261064d6000f3fe608060405234801561001057600080fd5b50600436106100415760003560e01c806386d1a69f146100465780638da5cb5b14610050578063af6bd3141461006e575b600080fd5b61004e61008c565b005b610058610168565b60405161006591906104a9565b60405180910390f35b61007661018c565b604051610083919061052d565b60405180910390f35b60008054906101000a900473ffffffffffffffffffffffffffffffffffffffff1673ffffffffffffffffffffffffffffffffffffffff163373ffffffffffffffffffffffffffffffffffffffff161461011a576040517f08c379a0000000000000000000000000000000000000000000000000000000008152600401610111906104ed565b60405180910390fd5b426001541061015e576040517f08c379a00000000000000000000000000000000000000000000000000000000081526004016101559061050d565b60405180910390fd5b610166610192565b565b60008054906101000a900473ffffffffffffffffffffffffffffffffffffffff1681565b60015481565b7f000000000000000000000000000000000000000000000000000000000000000073ffffffffffffffffffffffffffffffffffffffff1663a9059cbb60008054906101000a900473ffffffffffffffffffffffffffffffffffffffff167f000000000000000000000000000000000000000000000000000000000000000073ffffffffffffffffffffffffffffffffffffffff166370a08231306040518263ffffffff1660e01b8152600401610248919061048e565b60206040518083038186803b15801561026057600080fd5b505afa158015610274573d6000803e3d6000fd5b505050506040513d601f19601f82011682018060405250810190610298919061035d565b6040518363ffffffff1660e01b81526004016102b59291906104c4565b602060405180830381600087803b1580156102cf57600080fd5b505af11580156102e3573d6000803e3d6000fd5b505050506040513d601f19601f820116820180604052508101906103079190610334565b50565b600081519050610319816105e9565b92915050565b60008151905061032e81610600565b92915050565b60006020828403121561034657600080fd5b60006103548482850161030a565b91505092915050565b60006020828403121561036f57600080fd5b600061037d8482850161031f565b91505092915050565b61038f816105b3565b82525050565b61039e8161056b565b82525050565b6103ad81610559565b82525050565b60006103c0602383610548565b91507f596f7520617265206e6f7420746865206f776e6572206f66207468697320766160008301527f756c7400000000000000000000000000000000000000000000000000000000006020830152604082019050919050565b6000610426602183610548565b91507f5661756c74206973206e6f7420726561647920746f2062652072656c6561736560008301527f64000000000000000000000000000000000000000000000000000000000000006020830152604082019050919050565b610488816105a9565b82525050565b60006020820190506104a360008301846103a4565b92915050565b60006020820190506104be6000830184610395565b92915050565b60006040820190506104d96000830185610386565b6104e6602083018461047f565b9392505050565b60006020820190508181036000830152610506816103b3565b9050919050565b6000602082019050818103600083015261052681610419565b9050919050565b6000602082019050610542600083018461047f565b92915050565b600082825260208201905092915050565b600061056482610589565b9050919050565b600061057682610589565b9050919050565b60008115159050919050565b600073ffffffffffffffffffffffffffffffffffffffff82169050919050565b6000819050919050565b60006105be826105c5565b9050919050565b60006105d0826105d7565b9050919050565b60006105e282610589565b9050919050565b6105f28161057d565b81146105fd57600080fd5b50565b610609816105a9565b811461061457600080fd5b5056fea26469706673582212203fe06b3375c2978bd6fe84f3dcdc8264526fea4069295b722b5179a00dfb927c64736f6c63430008000033",
  "immutableReferences": {
    "78": [
      {
        "length": 32,
        "start": 404
      },
      {
        "length": 32,
        "start": 497
      }
    ]
  },
  "source": "// SPDX-License-Identifier: MIT\r\npragma solidity ^0.8.0;\r\n\r\nimport \"./BaseVault.sol\";\r\nimport \"./IERC20.sol\";\r\n\r\ncontract ERC20Vault is BaseVault{\r\n    IERC20 immutable internal token;\r\n \r\n    constructor(address tokenAddress, address registryAddress, uint _releaseTimestampInSeconds) BaseVault(registryAddress, _releaseTimestampInSeconds) {\r\n        token = IERC20(tokenAddress);\r\n    }\r\n    \r\n    function transfer() override internal {\r\n        token.transfer(owner, token.balanceOf(address(this)));\r\n    }\r\n}",
  "sourcePath": "/home/ndth/hodlers-vault/contracts/ERC20Vault.sol",
  "compiler": {
    "name": "solc",
    "version": "0.8.0+commit.c7dfd78e.Emscripten.clang"
  },
  "schemaVersion": "3.4.1",
  "updatedAt": "2021-07-02T09:36:33.523Z",
  "devdoc": {
    "kind": "dev",
    "methods": {},
    "version": 1
  },
  "userdoc": {
    "kind": "user",
    "methods": {},
    "version": 1
  }
}