{
  "contractName": "EthVault",
  "abi": [
    {
      "inputs": [
        {
          "internalType": "address",
          "name": "registryAddress",
          "type": "address"
        },
        {
          "internalType": "uint256",
          "name": "_releaseTimestampInSeconds",
          "type": "uint256"
        }
      ],
      "stateMutability": "nonpayable",
      "type": "constructor"
    },
    {
      "inputs": [],
      "name": "owner",
      "outputs": [
        {
          "internalType": "address payable",
          "name": "",
          "type": "address"
        }
      ],
      "stateMutability": "view",
      "type": "function"
    },
    {
      "inputs": [],
      "name": "release",
      "outputs": [],
      "stateMutability": "nonpayable",
      "type": "function"
    },
    {
      "inputs": [],
      "name": "releaseTimestampInSeconds",
      "outputs": [
        {
          "internalType": "uint256",
          "name": "",
          "type": "uint256"
        }
      ],
      "stateMutability": "view",
      "type": "function"
    },
    {
      "inputs": [],
      "name": "fund",
      "outputs": [],
      "stateMutability": "payable",
      "type": "function"
    }
  ],
  "bytecode": "0x608060405234801561001057600080fd5b5060405161073e38038061073e8339818101604052810190610032919061011f565b8181336000806101000a81548173ffffffffffffffffffffffffffffffffffffffff021916908373ffffffffffffffffffffffffffffffffffffffff1602179055508060018190555060008290508073ffffffffffffffffffffffffffffffffffffffff16634420e486306040518263ffffffff1660e01b81526004016100b9919061016a565b600060405180830381600087803b1580156100d357600080fd5b505af11580156100e7573d6000803e3d6000fd5b5050505050505050506101ef565b600081519050610104816101c1565b92915050565b600081519050610119816101d8565b92915050565b6000806040838503121561013257600080fd5b6000610140858286016100f5565b92505060206101518582860161010a565b9150509250929050565b61016481610185565b82525050565b600060208201905061017f600083018461015b565b92915050565b600061019082610197565b9050919050565b600073ffffffffffffffffffffffffffffffffffffffff82169050919050565b6000819050919050565b6101ca81610185565b81146101d557600080fd5b50565b6101e1816101b7565b81146101ec57600080fd5b50565b610540806101fe6000396000f3fe60806040526004361061003f5760003560e01c806386d1a69f146100445780638da5cb5b1461005b578063af6bd31414610086578063b60d4288146100b1575b600080fd5b34801561005057600080fd5b506100596100bb565b005b34801561006757600080fd5b50610070610197565b60405161007d9190610427565b60405180910390f35b34801561009257600080fd5b5061009b6101bb565b6040516100a891906104a2565b60405180910390f35b6100b96101c1565b005b60008054906101000a900473ffffffffffffffffffffffffffffffffffffffff1673ffffffffffffffffffffffffffffffffffffffff163373ffffffffffffffffffffffffffffffffffffffff1614610149576040517f08c379a000000000000000000000000000000000000000000000000000000000815260040161014090610462565b60405180910390fd5b426001541061018d576040517f08c379a000000000000000000000000000000000000000000000000000000000815260040161018490610482565b60405180910390fd5b610195610294565b565b60008054906101000a900473ffffffffffffffffffffffffffffffffffffffff1681565b60015481565b3373ffffffffffffffffffffffffffffffffffffffff1660008054906101000a900473ffffffffffffffffffffffffffffffffffffffff1673ffffffffffffffffffffffffffffffffffffffff161461024f576040517f08c379a000000000000000000000000000000000000000000000000000000000815260040161024690610462565b60405180910390fd5b60003411610292576040517f08c379a000000000000000000000000000000000000000000000000000000000815260040161028990610442565b60405180910390fd5b565b60008054906101000a900473ffffffffffffffffffffffffffffffffffffffff1673ffffffffffffffffffffffffffffffffffffffff166108fc479081150290604051600060405180830381858888f193505050501580156102fa573d6000803e3d6000fd5b50565b610306816104ce565b82525050565b6000610319601f836104bd565b91507f56616c7565206d7573742062652067726561746572207468616e207a65726f006000830152602082019050919050565b60006103596023836104bd565b91507f596f7520617265206e6f7420746865206f776e6572206f66207468697320766160008301527f756c7400000000000000000000000000000000000000000000000000000000006020830152604082019050919050565b60006103bf6021836104bd565b91507f5661756c74206973206e6f7420726561647920746f2062652072656c6561736560008301527f64000000000000000000000000000000000000000000000000000000000000006020830152604082019050919050565b61042181610500565b82525050565b600060208201905061043c60008301846102fd565b92915050565b6000602082019050818103600083015261045b8161030c565b9050919050565b6000602082019050818103600083015261047b8161034c565b9050919050565b6000602082019050818103600083015261049b816103b2565b9050919050565b60006020820190506104b76000830184610418565b92915050565b600082825260208201905092915050565b60006104d9826104e0565b9050919050565b600073ffffffffffffffffffffffffffffffffffffffff82169050919050565b600081905091905056fea264697066735822122049eb4ed0aec5cc9867c710328a293990c2641abae92ca4ce7408871e66368e3464736f6c63430008000033",
  "immutableReferences": {},
  "source": "// SPDX-License-Identifier: MIT\r\npragma solidity ^0.8.0;\r\n\r\nimport \"./BaseVault.sol\";\r\n\r\ncontract EthVault is BaseVault{\r\n    constructor(address registryAddress, uint _releaseTimestampInSeconds) BaseVault(registryAddress, _releaseTimestampInSeconds) {\r\n    }\r\n    \r\n    function transfer() override internal {\r\n        owner.transfer(address(this).balance);\r\n    }\r\n    \r\n    function fund() public payable {\r\n        require(owner == msg.sender, \"You are not the owner of this vault\");\r\n        require(msg.value > 0, \"Value must be greater than zero\");\r\n    }\r\n}",
  "sourcePath": "/home/ndth/hodlers-vault/contracts/EthVault.sol",
  "compiler": {
    "name": "solc",
    "version": "0.8.0+commit.c7dfd78e.Emscripten.clang"
  },
  "schemaVersion": "3.4.1",
  "updatedAt": "2021-07-02T09:36:33.536Z",
  "devdoc": {
    "kind": "dev",
    "methods": {},
    "version": 1
  },
  "userdoc": {
    "kind": "user",
    "methods": {},
    "version": 1
  }
}