{
  "contractName": "EthVault",
  "abi": [
    {
      "inputs": [
        {
          "internalType": "uint256",
          "name": "_releaseTimestampInSeconds",
          "type": "uint256"
        }
      ],
      "stateMutability": "nonpayable",
      "type": "constructor"
    },
    {
      "inputs": [],
      "name": "owner",
      "outputs": [
        {
          "internalType": "address payable",
          "name": "",
          "type": "address"
        }
      ],
      "stateMutability": "view",
      "type": "function"
    },
    {
      "inputs": [],
      "name": "release",
      "outputs": [],
      "stateMutability": "nonpayable",
      "type": "function"
    },
    {
      "inputs": [],
      "name": "fund",
      "outputs": [],
      "stateMutability": "payable",
      "type": "function"
    }
  ],
  "bytecode": "0x608060405234801561001057600080fd5b506040516105bf3803806105bf83398181016040528101906100329190610096565b80336000806101000a81548173ffffffffffffffffffffffffffffffffffffffff021916908373ffffffffffffffffffffffffffffffffffffffff1602179055508060018190555050506100e0565b600081519050610090816100c9565b92915050565b6000602082840312156100a857600080fd5b60006100b684828501610081565b91505092915050565b6000819050919050565b6100d2816100bf565b81146100dd57600080fd5b50565b6104d0806100ef6000396000f3fe6080604052600436106100345760003560e01c806386d1a69f146100395780638da5cb5b14610050578063b60d42881461007b575b600080fd5b34801561004557600080fd5b5061004e610085565b005b34801561005c57600080fd5b50610065610161565b60405161007291906103dc565b60405180910390f35b610083610185565b005b60008054906101000a900473ffffffffffffffffffffffffffffffffffffffff1673ffffffffffffffffffffffffffffffffffffffff163373ffffffffffffffffffffffffffffffffffffffff1614610113576040517f08c379a000000000000000000000000000000000000000000000000000000000815260040161010a90610417565b60405180910390fd5b4260015410610157576040517f08c379a000000000000000000000000000000000000000000000000000000000815260040161014e90610437565b60405180910390fd5b61015f610258565b565b60008054906101000a900473ffffffffffffffffffffffffffffffffffffffff1681565b3373ffffffffffffffffffffffffffffffffffffffff1660008054906101000a900473ffffffffffffffffffffffffffffffffffffffff1673ffffffffffffffffffffffffffffffffffffffff1614610213576040517f08c379a000000000000000000000000000000000000000000000000000000000815260040161020a90610417565b60405180910390fd5b60003411610256576040517f08c379a000000000000000000000000000000000000000000000000000000000815260040161024d906103f7565b60405180910390fd5b565b60008054906101000a900473ffffffffffffffffffffffffffffffffffffffff1673ffffffffffffffffffffffffffffffffffffffff166108fc479081150290604051600060405180830381858888f193505050501580156102be573d6000803e3d6000fd5b50565b6102ca81610468565b82525050565b60006102dd601f83610457565b91507f56616c7565206d7573742062652067726561746572207468616e207a65726f006000830152602082019050919050565b600061031d602383610457565b91507f596f7520617265206e6f7420746865206f776e6572206f66207468697320766160008301527f756c7400000000000000000000000000000000000000000000000000000000006020830152604082019050919050565b6000610383602183610457565b91507f5661756c74206973206e6f7420726561647920746f2062652072656c6561736560008301527f64000000000000000000000000000000000000000000000000000000000000006020830152604082019050919050565b60006020820190506103f160008301846102c1565b92915050565b60006020820190508181036000830152610410816102d0565b9050919050565b6000602082019050818103600083015261043081610310565b9050919050565b6000602082019050818103600083015261045081610376565b9050919050565b600082825260208201905092915050565b60006104738261047a565b9050919050565b600073ffffffffffffffffffffffffffffffffffffffff8216905091905056fea264697066735822122003419a8d169e276703dc2724b5427232e86613dca7709229b60e3a549f7e2ec964736f6c63430008000033",
  "immutableReferences": {},
  "source": "// SPDX-License-Identifier: MIT\r\npragma solidity ^0.8.0;\r\n\r\nimport \"./BaseVault.sol\";\r\n\r\ncontract EthVault is BaseVault{\r\n    constructor(uint _releaseTimestampInSeconds) BaseVault(_releaseTimestampInSeconds) {\r\n    }\r\n    \r\n    function transfer() override internal {\r\n        owner.transfer(address(this).balance);\r\n    }\r\n    \r\n    function fund() public payable {\r\n        require(owner == msg.sender, \"You are not the owner of this vault\");\r\n        require(msg.value > 0, \"Value must be greater than zero\");\r\n    }\r\n}",
  "sourcePath": "/home/ndth/hodlers-vault/contracts/EthVault.sol",
  "compiler": {
    "name": "solc",
    "version": "0.8.0+commit.c7dfd78e.Emscripten.clang"
  },
  "schemaVersion": "3.4.1",
  "updatedAt": "2021-07-01T04:04:45.365Z",
  "devdoc": {
    "kind": "dev",
    "methods": {},
    "version": 1
  },
  "userdoc": {
    "kind": "user",
    "methods": {},
    "version": 1
  }
}