{
  "contractName": "Registry",
  "abi": [
    {
      "inputs": [
        {
          "internalType": "address",
          "name": "vaultAddress",
          "type": "address"
        }
      ],
      "name": "register",
      "outputs": [],
      "stateMutability": "nonpayable",
      "type": "function"
    },
    {
      "inputs": [],
      "name": "getVaults",
      "outputs": [
        {
          "internalType": "address[]",
          "name": "",
          "type": "address[]"
        }
      ],
      "stateMutability": "view",
      "type": "function"
    }
  ],
  "bytecode": "0x608060405234801561001057600080fd5b50610573806100206000396000f3fe608060405234801561001057600080fd5b50600436106100365760003560e01c80634420e4861461003b57806344d00f8214610057575b600080fd5b61005560048036038101906100509190610302565b610075565b005b61005f61020e565b60405161006c919061043f565b60405180910390f35b60008190508073ffffffffffffffffffffffffffffffffffffffff16638da5cb5b6040518163ffffffff1660e01b815260040160206040518083038186803b1580156100c057600080fd5b505afa1580156100d4573d6000803e3d6000fd5b505050506040513d601f19601f820116820180604052508101906100f8919061032b565b73ffffffffffffffffffffffffffffffffffffffff163373ffffffffffffffffffffffffffffffffffffffff1614610165576040517f08c379a000000000000000000000000000000000000000000000000000000000815260040161015c90610461565b60405180910390fd5b60008060003373ffffffffffffffffffffffffffffffffffffffff1673ffffffffffffffffffffffffffffffffffffffff168152602001908152602001600020905080839080600181540180825580915050600190039060005260206000200160009091909190916101000a81548173ffffffffffffffffffffffffffffffffffffffff021916908373ffffffffffffffffffffffffffffffffffffffff160217905550505050565b60606000803373ffffffffffffffffffffffffffffffffffffffff1673ffffffffffffffffffffffffffffffffffffffff1681526020019081526020016000208054806020026020016040519081016040528092919081815260200182805480156102ce57602002820191906000526020600020905b8160009054906101000a900473ffffffffffffffffffffffffffffffffffffffff1673ffffffffffffffffffffffffffffffffffffffff1681526020019060010190808311610284575b5050505050905090565b6000813590506102e78161050f565b92915050565b6000815190506102fc81610526565b92915050565b60006020828403121561031457600080fd5b6000610322848285016102d8565b91505092915050565b60006020828403121561033d57600080fd5b600061034b848285016102ed565b91505092915050565b6000610360838361036c565b60208301905092915050565b610375816104cb565b82525050565b600061038682610491565b61039081856104a9565b935061039b83610481565b8060005b838110156103cc5781516103b38882610354565b97506103be8361049c565b92505060018101905061039f565b5085935050505092915050565b60006103e66023836104ba565b91507f596f7520617265206e6f7420746865206f776e6572206f66207468697320766160008301527f756c7400000000000000000000000000000000000000000000000000000000006020830152604082019050919050565b60006020820190508181036000830152610459818461037b565b905092915050565b6000602082019050818103600083015261047a816103d9565b9050919050565b6000819050602082019050919050565b600081519050919050565b6000602082019050919050565b600082825260208201905092915050565b600082825260208201905092915050565b60006104d6826104ef565b9050919050565b60006104e8826104ef565b9050919050565b600073ffffffffffffffffffffffffffffffffffffffff82169050919050565b610518816104cb565b811461052357600080fd5b50565b61052f816104dd565b811461053a57600080fd5b5056fea2646970667358221220dfa94b58dbf753da2482f6b02ecfa89767d4c6b1fa7e4e251b85cda79813875f64736f6c63430008000033",
  "immutableReferences": {},
  "source": "// SPDX-License-Identifier: MIT\r\npragma solidity ^0.8.0;\r\n\r\nimport \"./BaseVault.sol\";\r\n\r\ncontract Registry {\r\n    mapping(address => address[]) ownerToVaults;\r\n    \r\n    function register(address vaultAddress) public {\r\n        BaseVault vault = BaseVault(vaultAddress);\r\n        \r\n        require(msg.sender == vault.owner(), \"You are not the owner of this vault\");\r\n        \r\n        address[] storage vaultAddresses = ownerToVaults[msg.sender];\r\n        vaultAddresses.push(vaultAddress);\r\n    }\r\n    \r\n    function getVaults() public view returns (address[] memory) {\r\n        return ownerToVaults[msg.sender];\r\n    }\r\n}",
  "sourcePath": "/home/ndth/hodlers-vault/contracts/Registry.sol",
  "compiler": {
    "name": "solc",
    "version": "0.8.0+commit.c7dfd78e.Emscripten.clang"
  },
  "schemaVersion": "3.4.1",
  "updatedAt": "2021-07-01T04:04:45.369Z",
  "devdoc": {
    "kind": "dev",
    "methods": {},
    "version": 1
  },
  "userdoc": {
    "kind": "user",
    "methods": {},
    "version": 1
  }
}